{
  "contractName": "PaymentGateway",
  "abi": [
    {
      "inputs": [],
      "stateMutability": "nonpayable",
      "type": "constructor"
    },
    {
      "anonymous": false,
      "inputs": [
        {
          "indexed": true,
          "internalType": "address",
          "name": "merchant",
          "type": "address"
        },
        {
          "indexed": true,
          "internalType": "address",
          "name": "addedBy",
          "type": "address"
        }
      ],
      "name": "MerchantAdded",
      "type": "event"
    },
    {
      "anonymous": false,
      "inputs": [
        {
          "indexed": true,
          "internalType": "address",
          "name": "merchant",
          "type": "address"
        },
        {
          "indexed": true,
          "internalType": "address",
          "name": "removedBy",
          "type": "address"
        }
      ],
      "name": "MerchantRemoved",
      "type": "event"
    },
    {
      "anonymous": false,
      "inputs": [
        {
          "indexed": true,
          "internalType": "address",
          "name": "merchant",
          "type": "address"
        },
        {
          "indexed": true,
          "internalType": "address",
          "name": "payer",
          "type": "address"
        },
        {
          "indexed": false,
          "internalType": "uint256",
          "name": "amount",
          "type": "uint256"
        },
        {
          "indexed": true,
          "internalType": "string",
          "name": "paymentId",
          "type": "string"
        }
      ],
      "name": "PaymentProcessed",
      "type": "event"
    },
    {
      "inputs": [
        {
          "internalType": "address",
          "name": "",
          "type": "address"
        }
      ],
      "name": "merchants",
      "outputs": [
        {
          "internalType": "bool",
          "name": "",
          "type": "bool"
        }
      ],
      "stateMutability": "view",
      "type": "function",
      "constant": true
    },
    {
      "inputs": [],
      "name": "owner",
      "outputs": [
        {
          "internalType": "address",
          "name": "",
          "type": "address"
        }
      ],
      "stateMutability": "view",
      "type": "function",
      "constant": true
    },
    {
      "inputs": [
        {
          "internalType": "string",
          "name": "",
          "type": "string"
        }
      ],
      "name": "processedPayments",
      "outputs": [
        {
          "internalType": "bool",
          "name": "",
          "type": "bool"
        }
      ],
      "stateMutability": "view",
      "type": "function",
      "constant": true
    },
    {
      "inputs": [
        {
          "internalType": "address",
          "name": "merchant",
          "type": "address"
        }
      ],
      "name": "addMerchant",
      "outputs": [],
      "stateMutability": "nonpayable",
      "type": "function"
    },
    {
      "inputs": [
        {
          "internalType": "address",
          "name": "merchant",
          "type": "address"
        }
      ],
      "name": "removeMerchant",
      "outputs": [],
      "stateMutability": "nonpayable",
      "type": "function"
    },
    {
      "inputs": [
        {
          "internalType": "address payable",
          "name": "merchant",
          "type": "address"
        },
        {
          "internalType": "string",
          "name": "paymentId",
          "type": "string"
        }
      ],
      "name": "processPayment",
      "outputs": [],
      "stateMutability": "payable",
      "type": "function",
      "payable": true
    },
    {
      "inputs": [
        {
          "internalType": "string",
          "name": "paymentId",
          "type": "string"
        }
      ],
      "name": "isPaymentProcessed",
      "outputs": [
        {
          "internalType": "bool",
          "name": "",
          "type": "bool"
        }
      ],
      "stateMutability": "view",
      "type": "function",
      "constant": true
    },
    {
      "inputs": [],
      "name": "getContractBalance",
      "outputs": [
        {
          "internalType": "uint256",
          "name": "",
          "type": "uint256"
        }
      ],
      "stateMutability": "view",
      "type": "function",
      "constant": true
    }
  ],
  "bytecode": "0x608060405234801561000f575f80fd5b50335f806101000a81548173ffffffffffffffffffffffffffffffffffffffff021916908373ffffffffffffffffffffffffffffffffffffffff1602179055506001805f805f9054906101000a900473ffffffffffffffffffffffffffffffffffffffff1673ffffffffffffffffffffffffffffffffffffffff1673ffffffffffffffffffffffffffffffffffffffff1681526020019081526020015f205f6101000a81548160ff0219169083151502179055505f8054906101000a900473ffffffffffffffffffffffffffffffffffffffff1673ffffffffffffffffffffffffffffffffffffffff165f8054906101000a900473ffffffffffffffffffffffffffffffffffffffff1673ffffffffffffffffffffffffffffffffffffffff167fe87d651528a048f986f55d996a630f6b7a7d1788e1dfb444abc5d19e82b8ede060405160405180910390a361121c806101685f395ff3fe60806040526004361061007a575f3560e01c80639b931abf1161004d5780639b931abf14610136578063bf76c0ef14610172578063e105ad2e1461019a578063ee14e939146101b65761007a565b8063133adab61461007e578063149f2e88146100a65780636f9fb98a146100e25780638da5cb5b1461010c575b5f80fd5b348015610089575f80fd5b506100a4600480360381019061009f9190610ab8565b6101f2565b005b3480156100b1575f80fd5b506100cc60048036038101906100c79190610c1f565b610446565b6040516100d99190610c80565b60405180910390f35b3480156100ed575f80fd5b506100f6610479565b6040516101039190610cb1565b60405180910390f35b348015610117575f80fd5b5061012061050e565b60405161012d9190610cd9565b60405180910390f35b348015610141575f80fd5b5061015c60048036038101906101579190610c1f565b610531565b6040516101699190610c80565b60405180910390f35b34801561017d575f80fd5b5061019860048036038101906101939190610ab8565b610566565b005b6101b460048036038101906101af9190610d2d565b61079c565b005b3480156101c1575f80fd5b506101dc60048036038101906101d79190610ab8565b610a30565b6040516101e99190610c80565b60405180910390f35b5f8054906101000a900473ffffffffffffffffffffffffffffffffffffffff1673ffffffffffffffffffffffffffffffffffffffff163373ffffffffffffffffffffffffffffffffffffffff161461027f576040517f08c379a000000000000000000000000000000000000000000000000000000000815260040161027690610e07565b60405180910390fd5b60015f8273ffffffffffffffffffffffffffffffffffffffff1673ffffffffffffffffffffffffffffffffffffffff1681526020019081526020015f205f9054906101000a900460ff16610308576040517f08c379a00000000000000000000000000000000000000000000000000000000081526004016102ff90610e6f565b60405180910390fd5b5f8054906101000a900473ffffffffffffffffffffffffffffffffffffffff1673ffffffffffffffffffffffffffffffffffffffff168173ffffffffffffffffffffffffffffffffffffffff1603610395576040517f08c379a000000000000000000000000000000000000000000000000000000000815260040161038c90610ed7565b60405180910390fd5b5f60015f8373ffffffffffffffffffffffffffffffffffffffff1673ffffffffffffffffffffffffffffffffffffffff1681526020019081526020015f205f6101000a81548160ff0219169083151502179055503373ffffffffffffffffffffffffffffffffffffffff168173ffffffffffffffffffffffffffffffffffffffff167fb3264511caa8fa143a89f96f9e50b979a61428ef14c153ce3294096f7081cc1660405160405180910390a350565b5f6002826040516104579190610f61565b90815260200160405180910390205f9054906101000a900460ff169050919050565b5f805f9054906101000a900473ffffffffffffffffffffffffffffffffffffffff1673ffffffffffffffffffffffffffffffffffffffff163373ffffffffffffffffffffffffffffffffffffffff1614610508576040517f08c379a00000000000000000000000000000000000000000000000000000000081526004016104ff90610e07565b60405180910390fd5b47905090565b5f8054906101000a900473ffffffffffffffffffffffffffffffffffffffff1681565b6002818051602081018201805184825260208301602085012081835280955050505050505f915054906101000a900460ff1681565b5f8054906101000a900473ffffffffffffffffffffffffffffffffffffffff1673ffffffffffffffffffffffffffffffffffffffff163373ffffffffffffffffffffffffffffffffffffffff16146105f3576040517f08c379a00000000000000000000000000000000000000000000000000000000081526004016105ea90610e07565b60405180910390fd5b5f73ffffffffffffffffffffffffffffffffffffffff168173ffffffffffffffffffffffffffffffffffffffff1603610661576040517f08c379a000000000000000000000000000000000000000000000000000000000815260040161065890610fc1565b60405180910390fd5b60015f8273ffffffffffffffffffffffffffffffffffffffff1673ffffffffffffffffffffffffffffffffffffffff1681526020019081526020015f205f9054906101000a900460ff16156106eb576040517f08c379a00000000000000000000000000000000000000000000000000000000081526004016106e290611029565b60405180910390fd5b6001805f8373ffffffffffffffffffffffffffffffffffffffff1673ffffffffffffffffffffffffffffffffffffffff1681526020019081526020015f205f6101000a81548160ff0219169083151502179055503373ffffffffffffffffffffffffffffffffffffffff168173ffffffffffffffffffffffffffffffffffffffff167fe87d651528a048f986f55d996a630f6b7a7d1788e1dfb444abc5d19e82b8ede060405160405180910390a350565b60015f8373ffffffffffffffffffffffffffffffffffffffff1673ffffffffffffffffffffffffffffffffffffffff1681526020019081526020015f205f9054906101000a900460ff16610825576040517f08c379a000000000000000000000000000000000000000000000000000000000815260040161081c90610e6f565b60405180910390fd5b6002816040516108359190610f61565b90815260200160405180910390205f9054906101000a900460ff1615610890576040517f08c379a000000000000000000000000000000000000000000000000000000000815260040161088790611091565b60405180910390fd5b5f34116108d2576040517f08c379a00000000000000000000000000000000000000000000000000000000081526004016108c99061111f565b60405180910390fd5b60016002826040516108e49190610f61565b90815260200160405180910390205f6101000a81548160ff0219169083151502179055505f8273ffffffffffffffffffffffffffffffffffffffff163460405161092d9061116a565b5f6040518083038185875af1925050503d805f8114610967576040519150601f19603f3d011682016040523d82523d5f602084013e61096c565b606091505b50509050806109b0576040517f08c379a00000000000000000000000000000000000000000000000000000000081526004016109a7906111c8565b60405180910390fd5b816040516109be9190610f61565b60405180910390203373ffffffffffffffffffffffffffffffffffffffff168473ffffffffffffffffffffffffffffffffffffffff167fb5e51a9058e00792fede50f44125bb8bc3f068a8f877644c8a3b3d02c74f56e034604051610a239190610cb1565b60405180910390a4505050565b6001602052805f5260405f205f915054906101000a900460ff1681565b5f604051905090565b5f80fd5b5f80fd5b5f73ffffffffffffffffffffffffffffffffffffffff82169050919050565b5f610a8782610a5e565b9050919050565b610a9781610a7d565b8114610aa1575f80fd5b50565b5f81359050610ab281610a8e565b92915050565b5f60208284031215610acd57610acc610a56565b5b5f610ada84828501610aa4565b91505092915050565b5f80fd5b5f80fd5b5f601f19601f8301169050919050565b7f4e487b71000000000000000000000000000000000000000000000000000000005f52604160045260245ffd5b610b3182610aeb565b810181811067ffffffffffffffff82111715610b5057610b4f610afb565b5b80604052505050565b5f610b62610a4d565b9050610b6e8282610b28565b919050565b5f67ffffffffffffffff821115610b8d57610b8c610afb565b5b610b9682610aeb565b9050602081019050919050565b828183375f83830152505050565b5f610bc3610bbe84610b73565b610b59565b905082815260208101848484011115610bdf57610bde610ae7565b5b610bea848285610ba3565b509392505050565b5f82601f830112610c0657610c05610ae3565b5b8135610c16848260208601610bb1565b91505092915050565b5f60208284031215610c3457610c33610a56565b5b5f82013567ffffffffffffffff811115610c5157610c50610a5a565b5b610c5d84828501610bf2565b91505092915050565b5f8115159050919050565b610c7a81610c66565b82525050565b5f602082019050610c935f830184610c71565b92915050565b5f819050919050565b610cab81610c99565b82525050565b5f602082019050610cc45f830184610ca2565b92915050565b610cd381610a7d565b82525050565b5f602082019050610cec5f830184610cca565b92915050565b5f610cfc82610a5e565b9050919050565b610d0c81610cf2565b8114610d16575f80fd5b50565b5f81359050610d2781610d03565b92915050565b5f8060408385031215610d4357610d42610a56565b5b5f610d5085828601610d19565b925050602083013567ffffffffffffffff811115610d7157610d70610a5a565b5b610d7d85828601610bf2565b9150509250929050565b5f82825260208201905092915050565b7f4f6e6c79206f776e65722063616e2063616c6c20746869732066756e6374696f5f8201527f6e00000000000000000000000000000000000000000000000000000000000000602082015250565b5f610df1602183610d87565b9150610dfc82610d97565b604082019050919050565b5f6020820190508181035f830152610e1e81610de5565b9050919050565b7f4d65726368616e74206e6f7420726567697374657265640000000000000000005f82015250565b5f610e59601783610d87565b9150610e6482610e25565b602082019050919050565b5f6020820190508181035f830152610e8681610e4d565b9050919050565b7f43616e6e6f742072656d6f7665206f776e6572206173206d65726368616e74005f82015250565b5f610ec1601f83610d87565b9150610ecc82610e8d565b602082019050919050565b5f6020820190508181035f830152610eee81610eb5565b9050919050565b5f81519050919050565b5f81905092915050565b5f5b83811015610f26578082015181840152602081019050610f0b565b5f8484015250505050565b5f610f3b82610ef5565b610f458185610eff565b9350610f55818560208601610f09565b80840191505092915050565b5f610f6c8284610f31565b915081905092915050565b7f496e76616c6964206d65726368616e74206164647265737300000000000000005f82015250565b5f610fab601883610d87565b9150610fb682610f77565b602082019050919050565b5f6020820190508181035f830152610fd881610f9f565b9050919050565b7f4d65726368616e7420616c7265616479207265676973746572656400000000005f82015250565b5f611013601b83610d87565b915061101e82610fdf565b602082019050919050565b5f6020820190508181035f83015261104081611007565b9050919050565b7f5061796d656e7420494420616c72656164792070726f636573736564000000005f82015250565b5f61107b601c83610d87565b915061108682611047565b602082019050919050565b5f6020820190508181035f8301526110a88161106f565b9050919050565b7f5061796d656e7420616d6f756e74206d757374206265206772656174657220745f8201527f68616e2030000000000000000000000000000000000000000000000000000000602082015250565b5f611109602583610d87565b9150611114826110af565b604082019050919050565b5f6020820190508181035f830152611136816110fd565b9050919050565b5f81905092915050565b50565b5f6111555f8361113d565b915061116082611147565b5f82019050919050565b5f6111748261114a565b9150819050919050565b7f4661696c656420746f2073656e642045746865720000000000000000000000005f82015250565b5f6111b2601483610d87565b91506111bd8261117e565b602082019050919050565b5f6020820190508181035f8301526111df816111a6565b905091905056fea2646970667358221220e3978c06222ae5cf2142cffeb761b9363e5e0856e5c4401db09bc2b8647a5f1464736f6c63430008150033",
  "immutableReferences": {},
  "source": "// SPDX-License-Identifier: MIT\npragma solidity ^0.8.0;\n\ncontract PaymentGateway {\n    address public owner;\n    \n    // Mapping to track registered merchants\n    mapping(address => bool) public merchants;\n    \n    // Mapping to track processed payments\n    mapping(string => bool) public processedPayments;\n    \n    // Events\n    event PaymentProcessed(\n        address indexed merchant,\n        address indexed payer,\n        uint256 amount,\n        string indexed paymentId\n    );\n    \n    event MerchantAdded(\n        address indexed merchant,\n        address indexed addedBy\n    );\n    \n    event MerchantRemoved(\n        address indexed merchant,\n        address indexed removedBy\n    );\n    \n    // Constructor\n    constructor() {\n        owner = msg.sender;\n        // Register the owner as the first merchant\n        merchants[owner] = true;\n        emit MerchantAdded(owner, owner);\n    }\n    \n    // Modifiers\n    modifier onlyOwner() {\n        require(msg.sender == owner, \"Only owner can call this function\");\n        _;\n    }\n    \n    // Add a new merchant\n    function addMerchant(address merchant) external onlyOwner {\n        require(merchant != address(0), \"Invalid merchant address\");\n        require(!merchants[merchant], \"Merchant already registered\");\n        \n        merchants[merchant] = true;\n        emit MerchantAdded(merchant, msg.sender);\n    }\n    \n    // Remove a merchant\n    function removeMerchant(address merchant) external onlyOwner {\n        require(merchants[merchant], \"Merchant not registered\");\n        require(merchant != owner, \"Cannot remove owner as merchant\");\n        \n        merchants[merchant] = false;\n        emit MerchantRemoved(merchant, msg.sender);\n    }\n    \n    // Process a payment\n    function processPayment(address payable merchant, string memory paymentId) external payable {\n        require(merchants[merchant], \"Merchant not registered\");\n        require(!processedPayments[paymentId], \"Payment ID already processed\");\n        require(msg.value > 0, \"Payment amount must be greater than 0\");\n        \n        // Mark payment as processed\n        processedPayments[paymentId] = true;\n        \n        // Transfer funds to merchant\n        (bool sent, ) = merchant.call{value: msg.value}(\"\");\n        require(sent, \"Failed to send Ether\");\n        \n        // Emit payment event\n        emit PaymentProcessed(merchant, msg.sender, msg.value, paymentId);\n    }\n    \n    // Check if a payment has been processed\n    function isPaymentProcessed(string memory paymentId) external view returns (bool) {\n        return processedPayments[paymentId];\n    }\n    \n    // Get contract balance (for debugging)\n    function getContractBalance() external view onlyOwner returns (uint256) {\n        return address(this).balance;\n    }\n}",
  "sourcePath": "/Users/deekshanttekwani/yash/blockchain/payment-contract/contracts/PaymentGateway.sol",
  "compiler": {
    "name": "solc",
    "version": "0.8.21+commit.d9974bed.Emscripten.clang"
  },
  "schemaVersion": "3.4.16",
  "updatedAt": "2025-04-13T17:14:12.944Z",
  "networkType": "ethereum",
  "devdoc": {
    "kind": "dev",
    "methods": {},
    "version": 1
  },
  "userdoc": {
    "kind": "user",
    "methods": {},
    "version": 1
  }
}